{
  "_format": "hh-sol-artifact-1",
  "contractName": "Messenger",
  "sourceName": "contracts/Messenger.sol",
  "abi": [
    {
      "inputs": [],
      "stateMutability": "nonpayable",
      "type": "constructor"
    },
    {
      "inputs": [],
      "name": "CHAIN_ID",
      "outputs": [
        {
          "internalType": "uint16",
          "name": "",
          "type": "uint16"
        }
      ],
      "stateMutability": "view",
      "type": "function"
    },
    {
      "inputs": [],
      "name": "CONSISTENCY_LEVEL",
      "outputs": [
        {
          "internalType": "uint8",
          "name": "",
          "type": "uint8"
        }
      ],
      "stateMutability": "view",
      "type": "function"
    },
    {
      "inputs": [],
      "name": "DEPOSIT_SOL",
      "outputs": [
        {
          "internalType": "uint8",
          "name": "",
          "type": "uint8"
        }
      ],
      "stateMutability": "view",
      "type": "function"
    },
    {
      "inputs": [],
      "name": "DEPOSIT_TOKEN",
      "outputs": [
        {
          "internalType": "uint8",
          "name": "",
          "type": "uint8"
        }
      ],
      "stateMutability": "view",
      "type": "function"
    },
    {
      "inputs": [],
      "name": "FUND_SOL",
      "outputs": [
        {
          "internalType": "uint8",
          "name": "",
          "type": "uint8"
        }
      ],
      "stateMutability": "view",
      "type": "function"
    },
    {
      "inputs": [],
      "name": "FUND_TOKEN",
      "outputs": [
        {
          "internalType": "uint8",
          "name": "",
          "type": "uint8"
        }
      ],
      "stateMutability": "view",
      "type": "function"
    },
    {
      "inputs": [],
      "name": "SOL_STREAM",
      "outputs": [
        {
          "internalType": "uint8",
          "name": "",
          "type": "uint8"
        }
      ],
      "stateMutability": "view",
      "type": "function"
    },
    {
      "inputs": [],
      "name": "SOL_WITHDRAW_STREAM",
      "outputs": [
        {
          "internalType": "uint8",
          "name": "",
          "type": "uint8"
        }
      ],
      "stateMutability": "view",
      "type": "function"
    },
    {
      "inputs": [],
      "name": "SWAP_SOL",
      "outputs": [
        {
          "internalType": "uint8",
          "name": "",
          "type": "uint8"
        }
      ],
      "stateMutability": "view",
      "type": "function"
    },
    {
      "inputs": [],
      "name": "SWAP_TOKEN",
      "outputs": [
        {
          "internalType": "uint8",
          "name": "",
          "type": "uint8"
        }
      ],
      "stateMutability": "view",
      "type": "function"
    },
    {
      "inputs": [],
      "name": "TOKEN_STREAM",
      "outputs": [
        {
          "internalType": "uint8",
          "name": "",
          "type": "uint8"
        }
      ],
      "stateMutability": "view",
      "type": "function"
    },
    {
      "inputs": [],
      "name": "TOKEN_WITHDRAW_STREAM",
      "outputs": [
        {
          "internalType": "uint8",
          "name": "",
          "type": "uint8"
        }
      ],
      "stateMutability": "view",
      "type": "function"
    },
    {
      "inputs": [],
      "name": "WITHDRAW_SOL",
      "outputs": [
        {
          "internalType": "uint8",
          "name": "",
          "type": "uint8"
        }
      ],
      "stateMutability": "view",
      "type": "function"
    },
    {
      "inputs": [],
      "name": "WITHDRAW_TOKEN",
      "outputs": [
        {
          "internalType": "uint8",
          "name": "",
          "type": "uint8"
        }
      ],
      "stateMutability": "view",
      "type": "function"
    },
    {
      "inputs": [
        {
          "components": [
            {
              "internalType": "uint64",
              "name": "amount",
              "type": "uint64"
            },
            {
              "internalType": "uint16",
              "name": "toChain",
              "type": "uint16"
            },
            {
              "internalType": "bytes",
              "name": "depositor",
              "type": "bytes"
            }
          ],
          "internalType": "struct Messages.ProcessDeposit",
          "name": "processDeposit",
          "type": "tuple"
        }
      ],
      "name": "encode_process_deposit_sol",
      "outputs": [
        {
          "internalType": "bytes",
          "name": "encoded",
          "type": "bytes"
        }
      ],
      "stateMutability": "pure",
      "type": "function"
    },
    {
      "inputs": [
        {
          "components": [
            {
              "internalType": "uint64",
              "name": "amount",
              "type": "uint64"
            },
            {
              "internalType": "uint16",
              "name": "toChain",
              "type": "uint16"
            },
            {
              "internalType": "bytes",
              "name": "depositor",
              "type": "bytes"
            }
          ],
          "internalType": "struct Messages.ProcessDeposit",
          "name": "processDeposit",
          "type": "tuple"
        }
      ],
      "name": "encode_process_deposit_token",
      "outputs": [
        {
          "internalType": "bytes",
          "name": "encoded",
          "type": "bytes"
        }
      ],
      "stateMutability": "pure",
      "type": "function"
    },
    {
      "inputs": [
        {
          "components": [
            {
              "internalType": "uint64",
              "name": "end_time",
              "type": "uint64"
            },
            {
              "internalType": "uint64",
              "name": "amount",
              "type": "uint64"
            },
            {
              "internalType": "uint16",
              "name": "toChain",
              "type": "uint16"
            },
            {
              "internalType": "bytes",
              "name": "sender",
              "type": "bytes"
            }
          ],
          "internalType": "struct Messages.ProcessFund",
          "name": "processFund",
          "type": "tuple"
        }
      ],
      "name": "encode_process_fund_sol",
      "outputs": [
        {
          "internalType": "bytes",
          "name": "encoded",
          "type": "bytes"
        }
      ],
      "stateMutability": "pure",
      "type": "function"
    },
    {
      "inputs": [
        {
          "components": [
            {
              "internalType": "uint64",
              "name": "end_time",
              "type": "uint64"
            },
            {
              "internalType": "uint64",
              "name": "amount",
              "type": "uint64"
            },
            {
              "internalType": "uint16",
              "name": "toChain",
              "type": "uint16"
            },
            {
              "internalType": "bytes",
              "name": "sender",
              "type": "bytes"
            }
          ],
          "internalType": "struct Messages.ProcessFund",
          "name": "processFund",
          "type": "tuple"
        }
      ],
      "name": "encode_process_fund_token",
      "outputs": [
        {
          "internalType": "bytes",
          "name": "encoded",
          "type": "bytes"
        }
      ],
      "stateMutability": "pure",
      "type": "function"
    },
    {
      "inputs": [
        {
          "components": [
            {
              "internalType": "uint64",
              "name": "amount",
              "type": "uint64"
            },
            {
              "internalType": "uint16",
              "name": "toChain",
              "type": "uint16"
            },
            {
              "internalType": "bytes",
              "name": "sender",
              "type": "bytes"
            }
          ],
          "internalType": "struct Messages.ProcessSwap",
          "name": "processSwap",
          "type": "tuple"
        }
      ],
      "name": "encode_process_swap_sol",
      "outputs": [
        {
          "internalType": "bytes",
          "name": "encoded",
          "type": "bytes"
        }
      ],
      "stateMutability": "pure",
      "type": "function"
    },
    {
      "inputs": [
        {
          "internalType": "uint64",
          "name": "amount",
          "type": "uint64"
        },
        {
          "internalType": "bytes",
          "name": "sender",
          "type": "bytes"
        }
      ],
      "name": "encode_process_swap_token",
      "outputs": [
        {
          "internalType": "uint64",
          "name": "sequence",
          "type": "uint64"
        }
      ],
      "stateMutability": "payable",
      "type": "function"
    },
    {
      "inputs": [
        {
          "components": [
            {
              "internalType": "uint64",
              "name": "amount",
              "type": "uint64"
            },
            {
              "internalType": "uint16",
              "name": "toChain",
              "type": "uint16"
            },
            {
              "internalType": "bytes",
              "name": "sender",
              "type": "bytes"
            }
          ],
          "internalType": "struct Messages.ProcessSwap",
          "name": "processSwap",
          "type": "tuple"
        }
      ],
      "name": "encode_process_swap_token",
      "outputs": [
        {
          "internalType": "bytes",
          "name": "encoded",
          "type": "bytes"
        }
      ],
      "stateMutability": "pure",
      "type": "function"
    },
    {
      "inputs": [
        {
          "components": [
            {
              "internalType": "uint64",
              "name": "amount",
              "type": "uint64"
            },
            {
              "internalType": "uint16",
              "name": "toChain",
              "type": "uint16"
            },
            {
              "internalType": "bytes",
              "name": "withdrawer",
              "type": "bytes"
            }
          ],
          "internalType": "struct Messages.ProcessWithdraw",
          "name": "processWithdraw",
          "type": "tuple"
        }
      ],
      "name": "encode_process_withdraw_sol",
      "outputs": [
        {
          "internalType": "bytes",
          "name": "encoded",
          "type": "bytes"
        }
      ],
      "stateMutability": "pure",
      "type": "function"
    },
    {
      "inputs": [
        {
          "components": [
            {
              "internalType": "uint64",
              "name": "amount",
              "type": "uint64"
            },
            {
              "internalType": "uint16",
              "name": "toChain",
              "type": "uint16"
            },
            {
              "internalType": "bytes",
              "name": "withdrawer",
              "type": "bytes"
            }
          ],
          "internalType": "struct Messages.ProcessWithdraw",
          "name": "processWithdraw",
          "type": "tuple"
        }
      ],
      "name": "encode_process_withdraw_token",
      "outputs": [
        {
          "internalType": "bytes",
          "name": "encoded",
          "type": "bytes"
        }
      ],
      "stateMutability": "pure",
      "type": "function"
    },
    {
      "inputs": [
        {
          "components": [
            {
              "internalType": "uint64",
              "name": "start_time",
              "type": "uint64"
            },
            {
              "internalType": "uint64",
              "name": "end_time",
              "type": "uint64"
            },
            {
              "internalType": "uint64",
              "name": "amount",
              "type": "uint64"
            },
            {
              "internalType": "uint16",
              "name": "toChain",
              "type": "uint16"
            },
            {
              "internalType": "bytes",
              "name": "sender",
              "type": "bytes"
            },
            {
              "internalType": "bytes",
              "name": "receiver",
              "type": "bytes"
            }
          ],
          "internalType": "struct Messages.ProcessStream",
          "name": "processStream",
          "type": "tuple"
        }
      ],
      "name": "encode_sol_stream",
      "outputs": [
        {
          "internalType": "bytes",
          "name": "encoded",
          "type": "bytes"
        }
      ],
      "stateMutability": "pure",
      "type": "function"
    },
    {
      "inputs": [
        {
          "components": [
            {
              "internalType": "uint64",
              "name": "amount",
              "type": "uint64"
            },
            {
              "internalType": "uint16",
              "name": "toChain",
              "type": "uint16"
            },
            {
              "internalType": "bytes",
              "name": "withdrawer",
              "type": "bytes"
            }
          ],
          "internalType": "struct Messages.ProcessWithdrawStream",
          "name": "processWithdrawStream",
          "type": "tuple"
        }
      ],
      "name": "encode_sol_withdraw_stream",
      "outputs": [
        {
          "internalType": "bytes",
          "name": "encoded",
          "type": "bytes"
        }
      ],
      "stateMutability": "pure",
      "type": "function"
    },
    {
      "inputs": [
        {
          "components": [
            {
              "internalType": "uint64",
              "name": "start_time",
              "type": "uint64"
            },
            {
              "internalType": "uint64",
              "name": "end_time",
              "type": "uint64"
            },
            {
              "internalType": "uint64",
              "name": "amount",
              "type": "uint64"
            },
            {
              "internalType": "uint16",
              "name": "toChain",
              "type": "uint16"
            },
            {
              "internalType": "bytes",
              "name": "sender",
              "type": "bytes"
            },
            {
              "internalType": "bytes",
              "name": "receiver",
              "type": "bytes"
            }
          ],
          "internalType": "struct Messages.ProcessStream",
          "name": "processStream",
          "type": "tuple"
        }
      ],
      "name": "encode_token_stream",
      "outputs": [
        {
          "internalType": "bytes",
          "name": "encoded",
          "type": "bytes"
        }
      ],
      "stateMutability": "pure",
      "type": "function"
    },
    {
      "inputs": [
        {
          "components": [
            {
              "internalType": "uint64",
              "name": "amount",
              "type": "uint64"
            },
            {
              "internalType": "uint16",
              "name": "toChain",
              "type": "uint16"
            },
            {
              "internalType": "bytes",
              "name": "withdrawer",
              "type": "bytes"
            }
          ],
          "internalType": "struct Messages.ProcessWithdrawStream",
          "name": "processWithdrawStream",
          "type": "tuple"
        }
      ],
      "name": "encode_token_withdraw_stream",
      "outputs": [
        {
          "internalType": "bytes",
          "name": "encoded",
          "type": "bytes"
        }
      ],
      "stateMutability": "pure",
      "type": "function"
    },
    {
      "inputs": [],
      "name": "getCurrentMsg",
      "outputs": [
        {
          "internalType": "bytes",
          "name": "",
          "type": "bytes"
        }
      ],
      "stateMutability": "view",
      "type": "function"
    },
    {
      "inputs": [
        {
          "internalType": "uint64",
          "name": "amount",
          "type": "uint64"
        },
        {
          "internalType": "bytes",
          "name": "depositor",
          "type": "bytes"
        }
      ],
      "name": "process_deposit_sol",
      "outputs": [
        {
          "internalType": "uint64",
          "name": "sequence",
          "type": "uint64"
        }
      ],
      "stateMutability": "payable",
      "type": "function"
    },
    {
      "inputs": [
        {
          "internalType": "uint64",
          "name": "amount",
          "type": "uint64"
        },
        {
          "internalType": "bytes",
          "name": "depositor",
          "type": "bytes"
        }
      ],
      "name": "process_deposit_token",
      "outputs": [
        {
          "internalType": "uint64",
          "name": "sequence",
          "type": "uint64"
        }
      ],
      "stateMutability": "payable",
      "type": "function"
    },
    {
      "inputs": [
        {
          "internalType": "uint64",
          "name": "end_time",
          "type": "uint64"
        },
        {
          "internalType": "uint64",
          "name": "amount",
          "type": "uint64"
        },
        {
          "internalType": "bytes",
          "name": "sender",
          "type": "bytes"
        }
      ],
      "name": "process_fund_sol",
      "outputs": [
        {
          "internalType": "uint64",
          "name": "sequence",
          "type": "uint64"
        }
      ],
      "stateMutability": "payable",
      "type": "function"
    },
    {
      "inputs": [
        {
          "internalType": "uint64",
          "name": "end_time",
          "type": "uint64"
        },
        {
          "internalType": "uint64",
          "name": "amount",
          "type": "uint64"
        },
        {
          "internalType": "bytes",
          "name": "sender",
          "type": "bytes"
        }
      ],
      "name": "process_fund_token",
      "outputs": [
        {
          "internalType": "uint64",
          "name": "sequence",
          "type": "uint64"
        }
      ],
      "stateMutability": "payable",
      "type": "function"
    },
    {
      "inputs": [
        {
          "internalType": "uint64",
          "name": "start_time",
          "type": "uint64"
        },
        {
          "internalType": "uint64",
          "name": "end_time",
          "type": "uint64"
        },
        {
          "internalType": "uint64",
          "name": "amount",
          "type": "uint64"
        },
        {
          "internalType": "bytes",
          "name": "receiver",
          "type": "bytes"
        },
        {
          "internalType": "bytes",
          "name": "sender",
          "type": "bytes"
        }
      ],
      "name": "process_sol_stream",
      "outputs": [
        {
          "internalType": "uint64",
          "name": "sequence",
          "type": "uint64"
        }
      ],
      "stateMutability": "payable",
      "type": "function"
    },
    {
      "inputs": [
        {
          "internalType": "uint64",
          "name": "amount",
          "type": "uint64"
        },
        {
          "internalType": "bytes",
          "name": "withdrawer",
          "type": "bytes"
        }
      ],
      "name": "process_sol_withdraw_stream",
      "outputs": [
        {
          "internalType": "uint64",
          "name": "sequence",
          "type": "uint64"
        }
      ],
      "stateMutability": "payable",
      "type": "function"
    },
    {
      "inputs": [
        {
          "internalType": "uint64",
          "name": "amount",
          "type": "uint64"
        },
        {
          "internalType": "bytes",
          "name": "sender",
          "type": "bytes"
        }
      ],
      "name": "process_swap_sol",
      "outputs": [
        {
          "internalType": "uint64",
          "name": "sequence",
          "type": "uint64"
        }
      ],
      "stateMutability": "payable",
      "type": "function"
    },
    {
      "inputs": [
        {
          "internalType": "uint64",
          "name": "start_time",
          "type": "uint64"
        },
        {
          "internalType": "uint64",
          "name": "end_time",
          "type": "uint64"
        },
        {
          "internalType": "uint64",
          "name": "amount",
          "type": "uint64"
        },
        {
          "internalType": "bytes",
          "name": "receiver",
          "type": "bytes"
        },
        {
          "internalType": "bytes",
          "name": "sender",
          "type": "bytes"
        }
      ],
      "name": "process_token_stream",
      "outputs": [
        {
          "internalType": "uint64",
          "name": "sequence",
          "type": "uint64"
        }
      ],
      "stateMutability": "payable",
      "type": "function"
    },
    {
      "inputs": [
        {
          "internalType": "uint64",
          "name": "amount",
          "type": "uint64"
        },
        {
          "internalType": "bytes",
          "name": "withdrawer",
          "type": "bytes"
        }
      ],
      "name": "process_token_withdraw_stream",
      "outputs": [
        {
          "internalType": "uint64",
          "name": "sequence",
          "type": "uint64"
        }
      ],
      "stateMutability": "payable",
      "type": "function"
    },
    {
      "inputs": [
        {
          "internalType": "uint64",
          "name": "amount",
          "type": "uint64"
        },
        {
          "internalType": "bytes",
          "name": "sender",
          "type": "bytes"
        }
      ],
      "name": "process_withdraw_sol",
      "outputs": [
        {
          "internalType": "uint64",
          "name": "sequence",
          "type": "uint64"
        }
      ],
      "stateMutability": "payable",
      "type": "function"
    },
    {
      "inputs": [
        {
          "internalType": "uint64",
          "name": "amount",
          "type": "uint64"
        },
        {
          "internalType": "bytes",
          "name": "sender",
          "type": "bytes"
        }
      ],
      "name": "process_withdraw_token",
      "outputs": [
        {
          "internalType": "uint64",
          "name": "sequence",
          "type": "uint64"
        }
      ],
      "stateMutability": "payable",
      "type": "function"
    },
    {
      "inputs": [
        {
          "internalType": "bytes",
          "name": "encodedMsg",
          "type": "bytes"
        }
      ],
      "name": "receiveEncodedMsg",
      "outputs": [],
      "stateMutability": "nonpayable",
      "type": "function"
    },
    {
      "inputs": [
        {
          "internalType": "uint16",
          "name": "chainId",
          "type": "uint16"
        },
        {
          "internalType": "bytes32",
          "name": "applicationAddr",
          "type": "bytes32"
        }
      ],
      "name": "registerApplicationContracts",
      "outputs": [],
      "stateMutability": "nonpayable",
      "type": "function"
    },
    {
      "inputs": [
        {
          "internalType": "bytes",
          "name": "str",
          "type": "bytes"
        }
      ],
      "name": "sendMsg",
      "outputs": [
        {
          "internalType": "uint64",
          "name": "sequence",
          "type": "uint64"
        }
      ],
      "stateMutability": "nonpayable",
      "type": "function"
    },
    {
      "inputs": [],
      "name": "wormhole",
      "outputs": [
        {
          "internalType": "contract IWormhole",
          "name": "",
          "type": "address"
        }
      ],
      "stateMutability": "view",
      "type": "function"
    }
  ],
  "bytecode": "0x608060405260008060006101000a81548163ffffffff021916908363ffffffff16021790555034801561003157600080fd5b5073706abc4e45d419950511e474c7b9ed348a4a716c600060046101000a81548173ffffffffffffffffffffffffffffffffffffffff021916908373ffffffffffffffffffffffffffffffffffffffff1602179055506134a3806100966000396000f3fe60806040526004361061025c5760003560e01c8063737a3ca411610144578063bf2f7e30116100b6578063dfc26de71161007a578063dfc26de71461097a578063eef2f414146109aa578063f3087ca6146109e7578063f72dc03f14610a24578063fe66e7ae14610a54578063ff206cf814610a915761025c565b8063bf2f7e301461088c578063c30a7741146108bc578063d47c3c31146108e7578063dcb202a614610912578063dcbe00c31461093d5761025c565b806399b84aa71161010857806399b84aa71461075c578063a02ca48f14610787578063a6636dbc146107c4578063abe6cbcd146107ef578063b318539f1461081f578063ba0fed4c1461084f5761025c565b8063737a3ca4146106615780637e8366661461069e57806380620983146106db57806384acd1bb1461070657806385e1f4d0146107315761025c565b8063496d76ff116101dd5780635f327e1c116101a15780635f327e1c1461052e5780635f9de49e14610557578063624041621461058757806368b02e24146105b75780636c9bafc0146105f457806370731d9c146106315761025c565b8063496d76ff146104475780634a6b8c0f146104705780634d131474146104ad5780634fd686c8146104d85780635e2d15ed146105035761025c565b806338b9bd431161022457806338b9bd4314610354578063393bb943146103845780633cac4f63146103af5780633ed3a054146103df57806343242cf71461040a5761025c565b8063086e0c1d146102615780630fa0b8501461029e57806313f66587146102c957806327c9d47d146102f4578063324ad4a214610324575b600080fd5b34801561026d57600080fd5b506102886004803603810190610283919061297d565b610abc565b6040516102959190612eaa565b60405180910390f35b3480156102aa57600080fd5b506102b3610af8565b6040516102c09190612ffb565b60405180910390f35b3480156102d557600080fd5b506102de610afd565b6040516102eb9190612ffb565b60405180910390f35b61030e60048036038101906103099190612aa2565b610b02565b60405161031b9190612fe0565b60405180910390f35b61033e60048036038101906103399190612aa2565b610c25565b60405161034b9190612fe0565b60405180910390f35b61036e60048036038101906103699190612aa2565b610d48565b60405161037b9190612fe0565b60405180910390f35b34801561039057600080fd5b50610399610e6b565b6040516103a69190612ffb565b60405180910390f35b6103c960048036038101906103c49190612aa2565b610e70565b6040516103d69190612fe0565b60405180910390f35b3480156103eb57600080fd5b506103f4610f93565b6040516104019190612ffb565b60405180910390f35b34801561041657600080fd5b50610431600480360381019061042c919061293c565b610f98565b60405161043e9190612eaa565b60405180910390f35b34801561045357600080fd5b5061046e600480360381019061046991906127f7565b610fd4565b005b34801561047c57600080fd5b5061049760048036038101906104929190612879565b6111d4565b6040516104a49190612eaa565b60405180910390f35b3480156104b957600080fd5b506104c2611216565b6040516104cf9190612ffb565b60405180910390f35b3480156104e457600080fd5b506104ed61121b565b6040516104fa9190612ffb565b60405180910390f35b34801561050f57600080fd5b50610518611220565b6040516105259190612ffb565b60405180910390f35b34801561053a57600080fd5b5061055560048036038101906105509190612a3d565b611225565b005b610571600480360381019061056c9190612aa2565b611249565b60405161057e9190612fe0565b60405180910390f35b6105a1600480360381019061059c9190612b5d565b61136c565b6040516105ae9190612fe0565b60405180910390f35b3480156105c357600080fd5b506105de60048036038101906105d99190612879565b6114b8565b6040516105eb9190612eaa565b60405180910390f35b34801561060057600080fd5b5061061b6004803603810190610616919061297d565b6114fa565b6040516106289190612eaa565b60405180910390f35b61064b60048036038101906106469190612af6565b611536565b6040516106589190612fe0565b60405180910390f35b34801561066d57600080fd5b50610688600480360381019061068391906127f7565b61166a565b6040516106959190612fe0565b60405180910390f35b3480156106aa57600080fd5b506106c560048036038101906106c091906128fb565b611756565b6040516106d29190612eaa565b60405180910390f35b3480156106e757600080fd5b506106f0611792565b6040516106fd9190612ffb565b60405180910390f35b34801561071257600080fd5b5061071b611797565b6040516107289190612ecc565b60405180910390f35b34801561073d57600080fd5b506107466117c0565b6040516107539190612f49565b60405180910390f35b34801561076857600080fd5b506107716117c5565b60405161077e9190612ffb565b60405180910390f35b34801561079357600080fd5b506107ae60048036038101906107a9919061293c565b6117ca565b6040516107bb9190612eaa565b60405180910390f35b3480156107d057600080fd5b506107d9611806565b6040516107e69190612ffb565b60405180910390f35b61080960048036038101906108049190612b5d565b61180b565b6040516108169190612fe0565b60405180910390f35b61083960048036038101906108349190612aa2565b611957565b6040516108469190612fe0565b60405180910390f35b34801561085b57600080fd5b5061087660048036038101906108719190612838565b611a7a565b6040516108839190612eaa565b60405180910390f35b6108a660048036038101906108a19190612aa2565b611ab6565b6040516108b39190612fe0565b60405180910390f35b3480156108c857600080fd5b506108d1611bd9565b6040516108de9190612ffb565b60405180910390f35b3480156108f357600080fd5b506108fc611bde565b6040516109099190612ffb565b60405180910390f35b34801561091e57600080fd5b50610927611be3565b6040516109349190612ffb565b60405180910390f35b34801561094957600080fd5b50610964600480360381019061095f91906128ba565b611be8565b6040516109719190612eaa565b60405180910390f35b610994600480360381019061098f9190612af6565b611c36565b6040516109a19190612fe0565b60405180910390f35b3480156109b657600080fd5b506109d160048036038101906109cc9190612838565b611d6a565b6040516109de9190612eaa565b60405180910390f35b3480156109f357600080fd5b50610a0e6004803603810190610a0991906128ba565b611da6565b604051610a1b9190612eaa565b60405180910390f35b610a3e6004803603810190610a399190612aa2565b611df4565b604051610a4b9190612fe0565b60405180910390f35b348015610a6057600080fd5b50610a7b6004803603810190610a7691906128fb565b611f17565b604051610a889190612eaa565b60405180910390f35b348015610a9d57600080fd5b50610aa6611f53565b604051610ab39190612eaa565b60405180910390f35b60606009826000015183602001518460400151604051602001610ae29493929190612d8c565b6040516020818303038152906040529050919050565b600381565b600681565b600080610b3760405180606001604052808667ffffffffffffffff168152602001600461ffff16815260200185815250611756565b9050610b41611797565b73ffffffffffffffffffffffffffffffffffffffff1663b19a437e60008054906101000a900463ffffffff168360016040518463ffffffff1660e01b8152600401610b8e93929190612fa2565b602060405180830381600087803b158015610ba857600080fd5b505af1158015610bbc573d6000803e3d6000fd5b505050506040513d601f19601f82011682018060405250810190610be09190612a79565b9150600160008054906101000a900463ffffffff16610bff919061310c565b6000806101000a81548163ffffffff021916908363ffffffff1602179055505092915050565b600080610c5a60405180606001604052808667ffffffffffffffff168152602001600461ffff168152602001858152506117ca565b9050610c64611797565b73ffffffffffffffffffffffffffffffffffffffff1663b19a437e60008054906101000a900463ffffffff168360016040518463ffffffff1660e01b8152600401610cb193929190612fa2565b602060405180830381600087803b158015610ccb57600080fd5b505af1158015610cdf573d6000803e3d6000fd5b505050506040513d601f19601f82011682018060405250810190610d039190612a79565b9150600160008054906101000a900463ffffffff16610d22919061310c565b6000806101000a81548163ffffffff021916908363ffffffff1602179055505092915050565b600080610d7d60405180606001604052808667ffffffffffffffff168152602001600461ffff168152602001858152506114fa565b9050610d87611797565b73ffffffffffffffffffffffffffffffffffffffff1663b19a437e60008054906101000a900463ffffffff168360016040518463ffffffff1660e01b8152600401610dd493929190612fa2565b602060405180830381600087803b158015610dee57600080fd5b505af1158015610e02573d6000803e3d6000fd5b505050506040513d601f19601f82011682018060405250810190610e269190612a79565b9150600160008054906101000a900463ffffffff16610e45919061310c565b6000806101000a81548163ffffffff021916908363ffffffff1602179055505092915050565b600c81565b600080610ea560405180606001604052808667ffffffffffffffff168152602001600461ffff16815260200185815250610f98565b9050610eaf611797565b73ffffffffffffffffffffffffffffffffffffffff1663b19a437e60008054906101000a900463ffffffff168360016040518463ffffffff1660e01b8152600401610efc93929190612fa2565b602060405180830381600087803b158015610f1657600080fd5b505af1158015610f2a573d6000803e3d6000fd5b505050506040513d601f19601f82011682018060405250810190610f4e9190612a79565b9150600160008054906101000a900463ffffffff16610f6d919061310c565b6000806101000a81548163ffffffff021916908363ffffffff1602179055505092915050565b600a81565b60606004826000015183602001518460400151604051602001610fbe9493929190612d8c565b6040516020818303038152906040529050919050565b6000806000610fe1611797565b73ffffffffffffffffffffffffffffffffffffffff1663c0fd8bde856040518263ffffffff1660e01b81526004016110199190612eaa565b60006040518083038186803b15801561103157600080fd5b505afa158015611045573d6000803e3d6000fd5b505050506040513d6000823e3d601f19601f8201168201806040525081019061106e91906129be565b9250925092508181906110b7576040517f08c379a00000000000000000000000000000000000000000000000000000000081526004016110ae9190612ee7565b60405180910390fd5b50826080015160036000856060015161ffff1661ffff168152602001908152602001600020541461111d576040517f08c379a000000000000000000000000000000000000000000000000000000000815260040161111490612f29565b60405180910390fd5b60016000846101400151815260200190815260200160002060009054906101000a900460ff1615611183576040517f08c379a000000000000000000000000000000000000000000000000000000000815260040161117a90612f09565b60405180910390fd5b6001806000856101400151815260200190815260200160002060006101000a81548160ff0219169083151502179055508260e00151600290805190602001906111cd929190611fe5565b5050505050565b606060078260000151836020015184604001518560600151604051602001611200959493929190612dd6565b6040516020818303038152906040529050919050565b600b81565b600181565b600481565b80600360008461ffff1661ffff168152602001908152602001600020819055505050565b60008061127e60405180606001604052808667ffffffffffffffff168152602001600461ffff16815260200185815250611d6a565b9050611288611797565b73ffffffffffffffffffffffffffffffffffffffff1663b19a437e60008054906101000a900463ffffffff168360016040518463ffffffff1660e01b81526004016112d593929190612fa2565b602060405180830381600087803b1580156112ef57600080fd5b505af1158015611303573d6000803e3d6000fd5b505050506040513d601f19601f820116820180604052508101906113279190612a79565b9150600160008054906101000a900463ffffffff16611346919061310c565b6000806101000a81548163ffffffff021916908363ffffffff1602179055505092915050565b6000806113c76040518060c001604052808967ffffffffffffffff1681526020018867ffffffffffffffff1681526020018767ffffffffffffffff168152602001600461ffff16815260200185815260200186815250611da6565b90506113d1611797565b73ffffffffffffffffffffffffffffffffffffffff1663b19a437e60008054906101000a900463ffffffff168360016040518463ffffffff1660e01b815260040161141e93929190612fa2565b602060405180830381600087803b15801561143857600080fd5b505af115801561144c573d6000803e3d6000fd5b505050506040513d601f19601f820116820180604052508101906114709190612a79565b9150600160008054906101000a900463ffffffff1661148f919061310c565b6000806101000a81548163ffffffff021916908363ffffffff1602179055505095945050505050565b6060600882600001518360200151846040015185606001516040516020016114e4959493929190612dd6565b6040516020818303038152906040529050919050565b6060600a8260000151836020015184604001516040516020016115209493929190612d8c565b6040516020818303038152906040529050919050565b60008061157b60405180608001604052808767ffffffffffffffff1681526020018667ffffffffffffffff168152602001600461ffff168152602001858152506111d4565b9050611585611797565b73ffffffffffffffffffffffffffffffffffffffff1663b19a437e60008054906101000a900463ffffffff168360016040518463ffffffff1660e01b81526004016115d293929190612fa2565b602060405180830381600087803b1580156115ec57600080fd5b505af1158015611600573d6000803e3d6000fd5b505050506040513d601f19601f820116820180604052508101906116249190612a79565b9150600160008054906101000a900463ffffffff16611643919061310c565b6000806101000a81548163ffffffff021916908363ffffffff160217905550509392505050565b6000611674611797565b73ffffffffffffffffffffffffffffffffffffffff1663b19a437e60008054906101000a900463ffffffff168460016040518463ffffffff1660e01b81526004016116c193929190612f64565b602060405180830381600087803b1580156116db57600080fd5b505af11580156116ef573d6000803e3d6000fd5b505050506040513d601f19601f820116820180604052508101906117139190612a79565b9050600160008054906101000a900463ffffffff16611732919061310c565b6000806101000a81548163ffffffff021916908363ffffffff160217905550919050565b6060600b82600001518360200151846040015160405160200161177c9493929190612d8c565b6040516020818303038152906040529050919050565b600881565b60008060049054906101000a900473ffffffffffffffffffffffffffffffffffffffff16905090565b600481565b600181565b606060038260000151836020015184604001516040516020016117f09493929190612d8c565b6040516020818303038152906040529050919050565b600781565b6000806118666040518060c001604052808967ffffffffffffffff1681526020018867ffffffffffffffff1681526020018767ffffffffffffffff168152602001600461ffff16815260200185815260200186815250611be8565b9050611870611797565b73ffffffffffffffffffffffffffffffffffffffff1663b19a437e60008054906101000a900463ffffffff168360016040518463ffffffff1660e01b81526004016118bd93929190612fa2565b602060405180830381600087803b1580156118d757600080fd5b505af11580156118eb573d6000803e3d6000fd5b505050506040513d601f19601f8201168201806040525081019061190f9190612a79565b9150600160008054906101000a900463ffffffff1661192e919061310c565b6000806101000a81548163ffffffff021916908363ffffffff1602179055505095945050505050565b60008061198c60405180606001604052808667ffffffffffffffff168152602001600461ffff16815260200185815250610abc565b9050611996611797565b73ffffffffffffffffffffffffffffffffffffffff1663b19a437e60008054906101000a900463ffffffff168360016040518463ffffffff1660e01b81526004016119e393929190612fa2565b602060405180830381600087803b1580156119fd57600080fd5b505af1158015611a11573d6000803e3d6000fd5b505050506040513d601f19601f82011682018060405250810190611a359190612a79565b9150600160008054906101000a900463ffffffff16611a54919061310c565b6000806101000a81548163ffffffff021916908363ffffffff1602179055505092915050565b60606006826000015183602001518460400151604051602001611aa09493929190612d8c565b6040516020818303038152906040529050919050565b600080611aeb60405180606001604052808667ffffffffffffffff168152602001600461ffff16815260200185815250611f17565b9050611af5611797565b73ffffffffffffffffffffffffffffffffffffffff1663b19a437e60008054906101000a900463ffffffff168360016040518463ffffffff1660e01b8152600401611b4293929190612fa2565b602060405180830381600087803b158015611b5c57600080fd5b505af1158015611b70573d6000803e3d6000fd5b505050506040513d601f19601f82011682018060405250810190611b949190612a79565b9150600160008054906101000a900463ffffffff16611bb3919061310c565b6000806101000a81548163ffffffff021916908363ffffffff1602179055505092915050565b600281565b600981565b600581565b60606002826000015183602001518460400151856060015186608001518760a00151604051602001611c209796959493929190612e31565b6040516020818303038152906040529050919050565b600080611c7b60405180608001604052808767ffffffffffffffff1681526020018667ffffffffffffffff168152602001600461ffff168152602001858152506114b8565b9050611c85611797565b73ffffffffffffffffffffffffffffffffffffffff1663b19a437e60008054906101000a900463ffffffff168360016040518463ffffffff1660e01b8152600401611cd293929190612fa2565b602060405180830381600087803b158015611cec57600080fd5b505af1158015611d00573d6000803e3d6000fd5b505050506040513d601f19601f82011682018060405250810190611d249190612a79565b9150600160008054906101000a900463ffffffff16611d43919061310c565b6000806101000a81548163ffffffff021916908363ffffffff160217905550509392505050565b60606005826000015183602001518460400151604051602001611d909493929190612d8c565b6040516020818303038152906040529050919050565b60606001826000015183602001518460400151856060015186608001518760a00151604051602001611dde9796959493929190612e31565b6040516020818303038152906040529050919050565b600080611e2960405180606001604052808667ffffffffffffffff168152602001600461ffff16815260200185815250611a7a565b9050611e33611797565b73ffffffffffffffffffffffffffffffffffffffff1663b19a437e60008054906101000a900463ffffffff168360016040518463ffffffff1660e01b8152600401611e8093929190612fa2565b602060405180830381600087803b158015611e9a57600080fd5b505af1158015611eae573d6000803e3d6000fd5b505050506040513d601f19601f82011682018060405250810190611ed29190612a79565b9150600160008054906101000a900463ffffffff16611ef1919061310c565b6000806101000a81548163ffffffff021916908363ffffffff1602179055505092915050565b6060600c826000015183602001518460400151604051602001611f3d9493929190612d8c565b6040516020818303038152906040529050919050565b606060028054611f6290613233565b80601f0160208091040260200160405190810160405280929190818152602001828054611f8e90613233565b8015611fdb5780601f10611fb057610100808354040283529160200191611fdb565b820191906000526020600020905b815481529060010190602001808311611fbe57829003601f168201915b5050505050905090565b828054611ff190613233565b90600052602060002090601f016020900481019282612013576000855561205a565b82601f1061202c57805160ff191683800117855561205a565b8280016001018555821561205a579182015b8281111561205957825182559160200191906001019061203e565b5b509050612067919061206b565b5090565b5b8082111561208457600081600090555060010161206c565b5090565b600061209b6120968461303b565b613016565b905080838252602082019050828560808602820111156120ba57600080fd5b60005b858110156120ea57816120d088826125cd565b8452602084019350608083019250506001810190506120bd565b5050509392505050565b600061210761210284613067565b613016565b90508281526020810184848401111561211f57600080fd5b61212a8482856131f1565b509392505050565b600061214561214084613067565b613016565b90508281526020810184848401111561215d57600080fd5b612168848285613200565b509392505050565b600061218361217e84613098565b613016565b90508281526020810184848401111561219b57600080fd5b6121a6848285613200565b509392505050565b600082601f8301126121bf57600080fd5b81516121cf848260208601612088565b91505092915050565b6000815190506121e7816133e3565b92915050565b6000813590506121fc816133fa565b92915050565b600081519050612211816133fa565b92915050565b600082601f83011261222857600080fd5b81356122388482602086016120f4565b91505092915050565b600082601f83011261225257600080fd5b8151612262848260208601612132565b91505092915050565b600082601f83011261227c57600080fd5b815161228c848260208601612170565b91505092915050565b6000606082840312156122a757600080fd5b6122b16060613016565b905060006122c1848285016127b8565b60008301525060206122d584828501612779565b602083015250604082013567ffffffffffffffff8111156122f557600080fd5b61230184828501612217565b60408301525092915050565b60006080828403121561231f57600080fd5b6123296080613016565b90506000612339848285016127b8565b600083015250602061234d848285016127b8565b602083015250604061236184828501612779565b604083015250606082013567ffffffffffffffff81111561238157600080fd5b61238d84828501612217565b60608301525092915050565b600060c082840312156123ab57600080fd5b6123b560c0613016565b905060006123c5848285016127b8565b60008301525060206123d9848285016127b8565b60208301525060406123ed848285016127b8565b604083015250606061240184828501612779565b606083015250608082013567ffffffffffffffff81111561242157600080fd5b61242d84828501612217565b60808301525060a082013567ffffffffffffffff81111561244d57600080fd5b61245984828501612217565b60a08301525092915050565b60006060828403121561247757600080fd5b6124816060613016565b90506000612491848285016127b8565b60008301525060206124a584828501612779565b602083015250604082013567ffffffffffffffff8111156124c557600080fd5b6124d184828501612217565b60408301525092915050565b6000606082840312156124ef57600080fd5b6124f96060613016565b90506000612509848285016127b8565b600083015250602061251d84828501612779565b602083015250604082013567ffffffffffffffff81111561253d57600080fd5b61254984828501612217565b60408301525092915050565b60006060828403121561256757600080fd5b6125716060613016565b90506000612581848285016127b8565b600083015250602061259584828501612779565b602083015250604082013567ffffffffffffffff8111156125b557600080fd5b6125c184828501612217565b60408301525092915050565b6000608082840312156125df57600080fd5b6125e96080613016565b905060006125f984828501612202565b600083015250602061260d84828501612202565b6020830152506040612621848285016127e2565b6040830152506060612635848285016127e2565b60608301525092915050565b6000610160828403121561265457600080fd5b61265f610160613016565b9050600061266f848285016127e2565b6000830152506020612683848285016127a3565b6020830152506040612697848285016127a3565b60408301525060606126ab8482850161278e565b60608301525060806126bf84828501612202565b60808301525060a06126d3848285016127cd565b60a08301525060c06126e7848285016127e2565b60c08301525060e082015167ffffffffffffffff81111561270757600080fd5b61271384828501612241565b60e083015250610100612728848285016127a3565b6101008301525061012082015167ffffffffffffffff81111561274a57600080fd5b612756848285016121ae565b6101208301525061014061276c84828501612202565b6101408301525092915050565b60008135905061278881613411565b92915050565b60008151905061279d81613411565b92915050565b6000815190506127b281613428565b92915050565b6000813590506127c78161343f565b92915050565b6000815190506127dc8161343f565b92915050565b6000815190506127f181613456565b92915050565b60006020828403121561280957600080fd5b600082013567ffffffffffffffff81111561282357600080fd5b61282f84828501612217565b91505092915050565b60006020828403121561284a57600080fd5b600082013567ffffffffffffffff81111561286457600080fd5b61287084828501612295565b91505092915050565b60006020828403121561288b57600080fd5b600082013567ffffffffffffffff8111156128a557600080fd5b6128b18482850161230d565b91505092915050565b6000602082840312156128cc57600080fd5b600082013567ffffffffffffffff8111156128e657600080fd5b6128f284828501612399565b91505092915050565b60006020828403121561290d57600080fd5b600082013567ffffffffffffffff81111561292757600080fd5b61293384828501612465565b91505092915050565b60006020828403121561294e57600080fd5b600082013567ffffffffffffffff81111561296857600080fd5b612974848285016124dd565b91505092915050565b60006020828403121561298f57600080fd5b600082013567ffffffffffffffff8111156129a957600080fd5b6129b584828501612555565b91505092915050565b6000806000606084860312156129d357600080fd5b600084015167ffffffffffffffff8111156129ed57600080fd5b6129f986828701612641565b9350506020612a0a868287016121d8565b925050604084015167ffffffffffffffff811115612a2757600080fd5b612a338682870161226b565b9150509250925092565b60008060408385031215612a5057600080fd5b6000612a5e85828601612779565b9250506020612a6f858286016121ed565b9150509250929050565b600060208284031215612a8b57600080fd5b6000612a99848285016127cd565b91505092915050565b60008060408385031215612ab557600080fd5b6000612ac3858286016127b8565b925050602083013567ffffffffffffffff811115612ae057600080fd5b612aec85828601612217565b9150509250929050565b600080600060608486031215612b0b57600080fd5b6000612b19868287016127b8565b9350506020612b2a868287016127b8565b925050604084013567ffffffffffffffff811115612b4757600080fd5b612b5386828701612217565b9150509250925092565b600080600080600060a08688031215612b7557600080fd5b6000612b83888289016127b8565b9550506020612b94888289016127b8565b9450506040612ba5888289016127b8565b935050606086013567ffffffffffffffff811115612bc257600080fd5b612bce88828901612217565b925050608086013567ffffffffffffffff811115612beb57600080fd5b612bf788828901612217565b9150509295509295909350565b6000612c0f826130c9565b612c1981856130df565b9350612c29818560208601613200565b612c3281613359565b840191505092915050565b6000612c48826130c9565b612c5281856130f0565b9350612c62818560208601613200565b80840191505092915050565b612c77816131bb565b82525050565b612c86816131df565b82525050565b6000612c97826130d4565b612ca181856130fb565b9350612cb1818560208601613200565b612cba81613359565b840191505092915050565b6000612cd26019836130fb565b9150612cdd82613391565b602082019050919050565b6000612cf56018836130fb565b9150612d00826133ba565b602082019050919050565b612d148161315c565b82525050565b612d2b612d268261315c565b613296565b82525050565b612d3a8161318a565b82525050565b612d498161319a565b82525050565b612d60612d5b8261319a565b6132a8565b82525050565b612d6f816131ae565b82525050565b612d86612d81826131ae565b6132ba565b82525050565b6000612d988287612d75565b600182019150612da88286612d4f565b600882019150612db88285612d1a565b600282019150612dc88284612c3d565b915081905095945050505050565b6000612de28288612d75565b600182019150612df28287612d4f565b600882019150612e028286612d4f565b600882019150612e128285612d1a565b600282019150612e228284612c3d565b91508190509695505050505050565b6000612e3d828a612d75565b600182019150612e4d8289612d4f565b600882019150612e5d8288612d4f565b600882019150612e6d8287612d4f565b600882019150612e7d8286612d1a565b600282019150612e8d8285612c3d565b9150612e998284612c3d565b915081905098975050505050505050565b60006020820190508181036000830152612ec48184612c04565b905092915050565b6000602082019050612ee16000830184612c6e565b92915050565b60006020820190508181036000830152612f018184612c8c565b905092915050565b60006020820190508181036000830152612f2281612cc5565b9050919050565b60006020820190508181036000830152612f4281612ce8565b9050919050565b6000602082019050612f5e6000830184612d0b565b92915050565b6000606082019050612f796000830186612d31565b8181036020830152612f8b8185612c04565b9050612f9a6040830184612c7d565b949350505050565b6000606082019050612fb76000830186612d31565b8181036020830152612fc98185612c04565b9050612fd86040830184612d66565b949350505050565b6000602082019050612ff56000830184612d40565b92915050565b60006020820190506130106000830184612d66565b92915050565b6000613020613031565b905061302c8282613265565b919050565b6000604051905090565b600067ffffffffffffffff8211156130565761305561332a565b5b602082029050602081019050919050565b600067ffffffffffffffff8211156130825761308161332a565b5b61308b82613359565b9050602081019050919050565b600067ffffffffffffffff8211156130b3576130b261332a565b5b6130bc82613359565b9050602081019050919050565b600081519050919050565b600081519050919050565b600082825260208201905092915050565b600081905092915050565b600082825260208201905092915050565b60006131178261318a565b91506131228361318a565b92508263ffffffff0382111561313b5761313a6132cc565b5b828201905092915050565b60008115159050919050565b6000819050919050565b600061ffff82169050919050565b600073ffffffffffffffffffffffffffffffffffffffff82169050919050565b600063ffffffff82169050919050565b600067ffffffffffffffff82169050919050565b600060ff82169050919050565b60006131c6826131cd565b9050919050565b60006131d88261316a565b9050919050565b60006131ea826131ae565b9050919050565b82818337600083830152505050565b60005b8381101561321e578082015181840152602081019050613203565b8381111561322d576000848401525b50505050565b6000600282049050600182168061324b57607f821691505b6020821081141561325f5761325e6132fb565b5b50919050565b61326e82613359565b810181811067ffffffffffffffff8211171561328d5761328c61332a565b5b80604052505050565b60006132a182613377565b9050919050565b60006132b38261336a565b9050919050565b60006132c582613384565b9050919050565b7f4e487b7100000000000000000000000000000000000000000000000000000000600052601160045260246000fd5b7f4e487b7100000000000000000000000000000000000000000000000000000000600052602260045260246000fd5b7f4e487b7100000000000000000000000000000000000000000000000000000000600052604160045260246000fd5b6000601f19601f8301169050919050565b60008160c01b9050919050565b60008160f01b9050919050565b60008160f81b9050919050565b7f4d65737361676520616c72656164792070726f63657373656400000000000000600082015250565b7f496e76616c696420456d69747465722041646472657373210000000000000000600082015250565b6133ec81613146565b81146133f757600080fd5b50565b61340381613152565b811461340e57600080fd5b50565b61341a8161315c565b811461342557600080fd5b50565b6134318161318a565b811461343c57600080fd5b50565b6134488161319a565b811461345357600080fd5b50565b61345f816131ae565b811461346a57600080fd5b5056fea26469706673582212206976d0e802abe82627fa87a18a064437e0b26e27bb3999c958c2ef2870aaf13664736f6c63430008040033",
  "linkReferences": {},
  "deployedLinkReferences": {}
}