{
    "_format": "hh-sol-artifact-1",
    "contractName": "Relayer",
    "sourceName": "contracts/Relayer.sol",
    "abi": [
        {
            "inputs": [],
            "stateMutability": "nonpayable",
            "type": "constructor"
        },
        {
            "inputs": [],
            "name": "CHAIN_ID",
            "outputs": [
                {
                    "internalType": "uint16",
                    "name": "",
                    "type": "uint16"
                }
            ],
            "stateMutability": "view",
            "type": "function"
        },
        {
            "inputs": [],
            "name": "CONSISTENCY_LEVEL",
            "outputs": [
                {
                    "internalType": "uint8",
                    "name": "",
                    "type": "uint8"
                }
            ],
            "stateMutability": "view",
            "type": "function"
        },
        {
            "inputs": [],
            "name": "DEPOSIT_SOL",
            "outputs": [
                {
                    "internalType": "uint8",
                    "name": "",
                    "type": "uint8"
                }
            ],
            "stateMutability": "view",
            "type": "function"
        },
        {
            "inputs": [],
            "name": "DEPOSIT_TOKEN",
            "outputs": [
                {
                    "internalType": "uint8",
                    "name": "",
                    "type": "uint8"
                }
            ],
            "stateMutability": "view",
            "type": "function"
        },
        {
            "inputs": [],
            "name": "FUND_SOL",
            "outputs": [
                {
                    "internalType": "uint8",
                    "name": "",
                    "type": "uint8"
                }
            ],
            "stateMutability": "view",
            "type": "function"
        },
        {
            "inputs": [],
            "name": "FUND_TOKEN",
            "outputs": [
                {
                    "internalType": "uint8",
                    "name": "",
                    "type": "uint8"
                }
            ],
            "stateMutability": "view",
            "type": "function"
        },
        {
            "inputs": [],
            "name": "SOL_STREAM",
            "outputs": [
                {
                    "internalType": "uint8",
                    "name": "",
                    "type": "uint8"
                }
            ],
            "stateMutability": "view",
            "type": "function"
        },
        {
            "inputs": [],
            "name": "SOL_WITHDRAW_STREAM",
            "outputs": [
                {
                    "internalType": "uint8",
                    "name": "",
                    "type": "uint8"
                }
            ],
            "stateMutability": "view",
            "type": "function"
        },
        {
            "inputs": [],
            "name": "SWAP_SOL",
            "outputs": [
                {
                    "internalType": "uint8",
                    "name": "",
                    "type": "uint8"
                }
            ],
            "stateMutability": "view",
            "type": "function"
        },
        {
            "inputs": [],
            "name": "SWAP_TOKEN",
            "outputs": [
                {
                    "internalType": "uint8",
                    "name": "",
                    "type": "uint8"
                }
            ],
            "stateMutability": "view",
            "type": "function"
        },
        {
            "inputs": [],
            "name": "TOKEN_STREAM",
            "outputs": [
                {
                    "internalType": "uint8",
                    "name": "",
                    "type": "uint8"
                }
            ],
            "stateMutability": "view",
            "type": "function"
        },
        {
            "inputs": [],
            "name": "TOKEN_WITHDRAW_STREAM",
            "outputs": [
                {
                    "internalType": "uint8",
                    "name": "",
                    "type": "uint8"
                }
            ],
            "stateMutability": "view",
            "type": "function"
        },
        {
            "inputs": [],
            "name": "WITHDRAW_SOL",
            "outputs": [
                {
                    "internalType": "uint8",
                    "name": "",
                    "type": "uint8"
                }
            ],
            "stateMutability": "view",
            "type": "function"
        },
        {
            "inputs": [],
            "name": "WITHDRAW_TOKEN",
            "outputs": [
                {
                    "internalType": "uint8",
                    "name": "",
                    "type": "uint8"
                }
            ],
            "stateMutability": "view",
            "type": "function"
        },
        {
            "inputs": [
                {
                    "components": [
                        {
                            "internalType": "uint64",
                            "name": "amount",
                            "type": "uint64"
                        },
                        {
                            "internalType": "uint16",
                            "name": "toChain",
                            "type": "uint16"
                        },
                        {
                            "internalType": "address",
                            "name": "depositor",
                            "type": "address"
                        }
                    ],
                    "internalType": "struct Messages.ProcessDeposit",
                    "name": "processDeposit",
                    "type": "tuple"
                }
            ],
            "name": "encode_process_deposit_sol",
            "outputs": [
                {
                    "internalType": "bytes",
                    "name": "encoded",
                    "type": "bytes"
                }
            ],
            "stateMutability": "pure",
            "type": "function"
        },
        {
            "inputs": [
                {
                    "components": [
                        {
                            "internalType": "uint64",
                            "name": "amount",
                            "type": "uint64"
                        },
                        {
                            "internalType": "uint16",
                            "name": "toChain",
                            "type": "uint16"
                        },
                        {
                            "internalType": "address",
                            "name": "depositor",
                            "type": "address"
                        }
                    ],
                    "internalType": "struct Messages.ProcessDeposit",
                    "name": "processDeposit",
                    "type": "tuple"
                }
            ],
            "name": "encode_process_deposit_token",
            "outputs": [
                {
                    "internalType": "bytes",
                    "name": "encoded",
                    "type": "bytes"
                }
            ],
            "stateMutability": "pure",
            "type": "function"
        },
        {
            "inputs": [
                {
                    "components": [
                        {
                            "internalType": "uint64",
                            "name": "end_time",
                            "type": "uint64"
                        },
                        {
                            "internalType": "uint64",
                            "name": "amount",
                            "type": "uint64"
                        },
                        {
                            "internalType": "uint16",
                            "name": "toChain",
                            "type": "uint16"
                        },
                        {
                            "internalType": "address",
                            "name": "sender",
                            "type": "address"
                        }
                    ],
                    "internalType": "struct Messages.ProcessFund",
                    "name": "processFund",
                    "type": "tuple"
                }
            ],
            "name": "encode_process_fund_sol",
            "outputs": [
                {
                    "internalType": "bytes",
                    "name": "encoded",
                    "type": "bytes"
                }
            ],
            "stateMutability": "pure",
            "type": "function"
        },
        {
            "inputs": [
                {
                    "components": [
                        {
                            "internalType": "uint64",
                            "name": "end_time",
                            "type": "uint64"
                        },
                        {
                            "internalType": "uint64",
                            "name": "amount",
                            "type": "uint64"
                        },
                        {
                            "internalType": "uint16",
                            "name": "toChain",
                            "type": "uint16"
                        },
                        {
                            "internalType": "address",
                            "name": "sender",
                            "type": "address"
                        }
                    ],
                    "internalType": "struct Messages.ProcessFund",
                    "name": "processFund",
                    "type": "tuple"
                }
            ],
            "name": "encode_process_fund_token",
            "outputs": [
                {
                    "internalType": "bytes",
                    "name": "encoded",
                    "type": "bytes"
                }
            ],
            "stateMutability": "pure",
            "type": "function"
        },
        {
            "inputs": [
                {
                    "components": [
                        {
                            "internalType": "uint64",
                            "name": "amount",
                            "type": "uint64"
                        },
                        {
                            "internalType": "uint16",
                            "name": "toChain",
                            "type": "uint16"
                        },
                        {
                            "internalType": "address",
                            "name": "sender",
                            "type": "address"
                        }
                    ],
                    "internalType": "struct Messages.ProcessSwap",
                    "name": "processSwap",
                    "type": "tuple"
                }
            ],
            "name": "encode_process_swap_sol",
            "outputs": [
                {
                    "internalType": "bytes",
                    "name": "encoded",
                    "type": "bytes"
                }
            ],
            "stateMutability": "pure",
            "type": "function"
        },
        {
            "inputs": [
                {
                    "components": [
                        {
                            "internalType": "uint64",
                            "name": "amount",
                            "type": "uint64"
                        },
                        {
                            "internalType": "uint16",
                            "name": "toChain",
                            "type": "uint16"
                        },
                        {
                            "internalType": "address",
                            "name": "sender",
                            "type": "address"
                        }
                    ],
                    "internalType": "struct Messages.ProcessSwap",
                    "name": "processSwap",
                    "type": "tuple"
                }
            ],
            "name": "encode_process_swap_token",
            "outputs": [
                {
                    "internalType": "bytes",
                    "name": "encoded",
                    "type": "bytes"
                }
            ],
            "stateMutability": "pure",
            "type": "function"
        },
        {
            "inputs": [
                {
                    "internalType": "uint64",
                    "name": "amount",
                    "type": "uint64"
                },
                {
                    "internalType": "uint32",
                    "name": "nonce",
                    "type": "uint32"
                }
            ],
            "name": "encode_process_swap_token",
            "outputs": [
                {
                    "internalType": "uint64",
                    "name": "sequence",
                    "type": "uint64"
                }
            ],
            "stateMutability": "payable",
            "type": "function"
        },
        {
            "inputs": [
                {
                    "components": [
                        {
                            "internalType": "uint64",
                            "name": "amount",
                            "type": "uint64"
                        },
                        {
                            "internalType": "uint16",
                            "name": "toChain",
                            "type": "uint16"
                        },
                        {
                            "internalType": "address",
                            "name": "withdrawer",
                            "type": "address"
                        }
                    ],
                    "internalType": "struct Messages.ProcessWithdraw",
                    "name": "processWithdraw",
                    "type": "tuple"
                }
            ],
            "name": "encode_process_withdraw_sol",
            "outputs": [
                {
                    "internalType": "bytes",
                    "name": "encoded",
                    "type": "bytes"
                }
            ],
            "stateMutability": "pure",
            "type": "function"
        },
        {
            "inputs": [
                {
                    "components": [
                        {
                            "internalType": "uint64",
                            "name": "amount",
                            "type": "uint64"
                        },
                        {
                            "internalType": "uint16",
                            "name": "toChain",
                            "type": "uint16"
                        },
                        {
                            "internalType": "address",
                            "name": "withdrawer",
                            "type": "address"
                        }
                    ],
                    "internalType": "struct Messages.ProcessWithdraw",
                    "name": "processWithdraw",
                    "type": "tuple"
                }
            ],
            "name": "encode_process_withdraw_token",
            "outputs": [
                {
                    "internalType": "bytes",
                    "name": "encoded",
                    "type": "bytes"
                }
            ],
            "stateMutability": "pure",
            "type": "function"
        },
        {
            "inputs": [
                {
                    "components": [
                        {
                            "internalType": "uint64",
                            "name": "start_time",
                            "type": "uint64"
                        },
                        {
                            "internalType": "uint64",
                            "name": "end_time",
                            "type": "uint64"
                        },
                        {
                            "internalType": "uint64",
                            "name": "amount",
                            "type": "uint64"
                        },
                        {
                            "internalType": "uint16",
                            "name": "toChain",
                            "type": "uint16"
                        },
                        {
                            "internalType": "address",
                            "name": "sender",
                            "type": "address"
                        },
                        {
                            "internalType": "address",
                            "name": "receiver",
                            "type": "address"
                        }
                    ],
                    "internalType": "struct Messages.ProcessStream",
                    "name": "processStream",
                    "type": "tuple"
                }
            ],
            "name": "encode_sol_stream",
            "outputs": [
                {
                    "internalType": "bytes",
                    "name": "encoded",
                    "type": "bytes"
                }
            ],
            "stateMutability": "pure",
            "type": "function"
        },
        {
            "inputs": [
                {
                    "components": [
                        {
                            "internalType": "uint64",
                            "name": "amount",
                            "type": "uint64"
                        },
                        {
                            "internalType": "uint16",
                            "name": "toChain",
                            "type": "uint16"
                        },
                        {
                            "internalType": "address",
                            "name": "withdrawer",
                            "type": "address"
                        }
                    ],
                    "internalType": "struct Messages.ProcessWithdrawStream",
                    "name": "processWithdrawStream",
                    "type": "tuple"
                }
            ],
            "name": "encode_sol_withdraw_stream",
            "outputs": [
                {
                    "internalType": "bytes",
                    "name": "encoded",
                    "type": "bytes"
                }
            ],
            "stateMutability": "pure",
            "type": "function"
        },
        {
            "inputs": [
                {
                    "components": [
                        {
                            "internalType": "uint64",
                            "name": "start_time",
                            "type": "uint64"
                        },
                        {
                            "internalType": "uint64",
                            "name": "end_time",
                            "type": "uint64"
                        },
                        {
                            "internalType": "uint64",
                            "name": "amount",
                            "type": "uint64"
                        },
                        {
                            "internalType": "uint16",
                            "name": "toChain",
                            "type": "uint16"
                        },
                        {
                            "internalType": "address",
                            "name": "sender",
                            "type": "address"
                        },
                        {
                            "internalType": "address",
                            "name": "receiver",
                            "type": "address"
                        }
                    ],
                    "internalType": "struct Messages.ProcessStream",
                    "name": "processStream",
                    "type": "tuple"
                }
            ],
            "name": "encode_token_stream",
            "outputs": [
                {
                    "internalType": "bytes",
                    "name": "encoded",
                    "type": "bytes"
                }
            ],
            "stateMutability": "pure",
            "type": "function"
        },
        {
            "inputs": [
                {
                    "components": [
                        {
                            "internalType": "uint64",
                            "name": "amount",
                            "type": "uint64"
                        },
                        {
                            "internalType": "uint16",
                            "name": "toChain",
                            "type": "uint16"
                        },
                        {
                            "internalType": "address",
                            "name": "withdrawer",
                            "type": "address"
                        }
                    ],
                    "internalType": "struct Messages.ProcessWithdrawStream",
                    "name": "processWithdrawStream",
                    "type": "tuple"
                }
            ],
            "name": "encode_token_withdraw_stream",
            "outputs": [
                {
                    "internalType": "bytes",
                    "name": "encoded",
                    "type": "bytes"
                }
            ],
            "stateMutability": "pure",
            "type": "function"
        },
        {
            "inputs": [],
            "name": "getCurrentMsg",
            "outputs": [
                {
                    "internalType": "bytes",
                    "name": "",
                    "type": "bytes"
                }
            ],
            "stateMutability": "view",
            "type": "function"
        },
        {
            "inputs": [
                {
                    "internalType": "uint64",
                    "name": "amount",
                    "type": "uint64"
                },
                {
                    "internalType": "address",
                    "name": "depositor",
                    "type": "address"
                },
                {
                    "internalType": "uint32",
                    "name": "nonce",
                    "type": "uint32"
                }
            ],
            "name": "process_deposit_sol",
            "outputs": [
                {
                    "internalType": "uint64",
                    "name": "sequence",
                    "type": "uint64"
                }
            ],
            "stateMutability": "payable",
            "type": "function"
        },
        {
            "inputs": [
                {
                    "internalType": "uint64",
                    "name": "amount",
                    "type": "uint64"
                },
                {
                    "internalType": "address",
                    "name": "depositor",
                    "type": "address"
                },
                {
                    "internalType": "uint32",
                    "name": "nonce",
                    "type": "uint32"
                }
            ],
            "name": "process_deposit_token",
            "outputs": [
                {
                    "internalType": "uint64",
                    "name": "sequence",
                    "type": "uint64"
                }
            ],
            "stateMutability": "payable",
            "type": "function"
        },
        {
            "inputs": [
                {
                    "internalType": "uint64",
                    "name": "end_time",
                    "type": "uint64"
                },
                {
                    "internalType": "uint64",
                    "name": "amount",
                    "type": "uint64"
                },
                {
                    "internalType": "uint32",
                    "name": "nonce",
                    "type": "uint32"
                }
            ],
            "name": "process_fund_sol",
            "outputs": [
                {
                    "internalType": "uint64",
                    "name": "sequence",
                    "type": "uint64"
                }
            ],
            "stateMutability": "payable",
            "type": "function"
        },
        {
            "inputs": [
                {
                    "internalType": "uint64",
                    "name": "end_time",
                    "type": "uint64"
                },
                {
                    "internalType": "uint64",
                    "name": "amount",
                    "type": "uint64"
                },
                {
                    "internalType": "uint32",
                    "name": "nonce",
                    "type": "uint32"
                }
            ],
            "name": "process_fund_token",
            "outputs": [
                {
                    "internalType": "uint64",
                    "name": "sequence",
                    "type": "uint64"
                }
            ],
            "stateMutability": "payable",
            "type": "function"
        },
        {
            "inputs": [
                {
                    "internalType": "uint64",
                    "name": "start_time",
                    "type": "uint64"
                },
                {
                    "internalType": "uint64",
                    "name": "end_time",
                    "type": "uint64"
                },
                {
                    "internalType": "uint64",
                    "name": "amount",
                    "type": "uint64"
                },
                {
                    "internalType": "address",
                    "name": "receiver",
                    "type": "address"
                },
                {
                    "internalType": "uint32",
                    "name": "nonce",
                    "type": "uint32"
                }
            ],
            "name": "process_sol_stream",
            "outputs": [
                {
                    "internalType": "uint64",
                    "name": "sequence",
                    "type": "uint64"
                }
            ],
            "stateMutability": "payable",
            "type": "function"
        },
        {
            "inputs": [
                {
                    "internalType": "uint64",
                    "name": "amount",
                    "type": "uint64"
                },
                {
                    "internalType": "address",
                    "name": "withdrawer",
                    "type": "address"
                },
                {
                    "internalType": "uint32",
                    "name": "nonce",
                    "type": "uint32"
                }
            ],
            "name": "process_sol_withdraw_stream",
            "outputs": [
                {
                    "internalType": "uint64",
                    "name": "sequence",
                    "type": "uint64"
                }
            ],
            "stateMutability": "payable",
            "type": "function"
        },
        {
            "inputs": [
                {
                    "internalType": "uint64",
                    "name": "amount",
                    "type": "uint64"
                },
                {
                    "internalType": "uint32",
                    "name": "nonce",
                    "type": "uint32"
                }
            ],
            "name": "process_swap_sol",
            "outputs": [
                {
                    "internalType": "uint64",
                    "name": "sequence",
                    "type": "uint64"
                }
            ],
            "stateMutability": "payable",
            "type": "function"
        },
        {
            "inputs": [
                {
                    "internalType": "uint64",
                    "name": "start_time",
                    "type": "uint64"
                },
                {
                    "internalType": "uint64",
                    "name": "end_time",
                    "type": "uint64"
                },
                {
                    "internalType": "uint64",
                    "name": "amount",
                    "type": "uint64"
                },
                {
                    "internalType": "address",
                    "name": "receiver",
                    "type": "address"
                },
                {
                    "internalType": "uint32",
                    "name": "nonce",
                    "type": "uint32"
                }
            ],
            "name": "process_token_stream",
            "outputs": [
                {
                    "internalType": "uint64",
                    "name": "sequence",
                    "type": "uint64"
                }
            ],
            "stateMutability": "payable",
            "type": "function"
        },
        {
            "inputs": [
                {
                    "internalType": "uint64",
                    "name": "amount",
                    "type": "uint64"
                },
                {
                    "internalType": "address",
                    "name": "withdrawer",
                    "type": "address"
                },
                {
                    "internalType": "uint32",
                    "name": "nonce",
                    "type": "uint32"
                }
            ],
            "name": "process_token_withdraw_stream",
            "outputs": [
                {
                    "internalType": "uint64",
                    "name": "sequence",
                    "type": "uint64"
                }
            ],
            "stateMutability": "payable",
            "type": "function"
        },
        {
            "inputs": [
                {
                    "internalType": "uint64",
                    "name": "amount",
                    "type": "uint64"
                },
                {
                    "internalType": "uint32",
                    "name": "nonce",
                    "type": "uint32"
                }
            ],
            "name": "process_withdraw_sol",
            "outputs": [
                {
                    "internalType": "uint64",
                    "name": "sequence",
                    "type": "uint64"
                }
            ],
            "stateMutability": "payable",
            "type": "function"
        },
        {
            "inputs": [
                {
                    "internalType": "uint64",
                    "name": "amount",
                    "type": "uint64"
                },
                {
                    "internalType": "uint32",
                    "name": "nonce",
                    "type": "uint32"
                }
            ],
            "name": "process_withdraw_token",
            "outputs": [
                {
                    "internalType": "uint64",
                    "name": "sequence",
                    "type": "uint64"
                }
            ],
            "stateMutability": "payable",
            "type": "function"
        },
        {
            "inputs": [
                {
                    "internalType": "bytes",
                    "name": "encodedMsg",
                    "type": "bytes"
                }
            ],
            "name": "receiveEncodedMsg",
            "outputs": [],
            "stateMutability": "nonpayable",
            "type": "function"
        },
        {
            "inputs": [
                {
                    "internalType": "uint16",
                    "name": "chainId",
                    "type": "uint16"
                },
                {
                    "internalType": "bytes32",
                    "name": "applicationAddr",
                    "type": "bytes32"
                }
            ],
            "name": "registerApplicationContracts",
            "outputs": [],
            "stateMutability": "nonpayable",
            "type": "function"
        },
        {
            "inputs": [],
            "name": "wormhole",
            "outputs": [
                {
                    "internalType": "contract IWormhole",
                    "name": "",
                    "type": "address"
                }
            ],
            "stateMutability": "view",
            "type": "function"
        }
    ],
    "bytecode": "0x608060405234801561001057600080fd5b5073c89ce4735882c9f0f0fe26686c53074e09b0d5506000806101000a81548173ffffffffffffffffffffffffffffffffffffffff021916908373ffffffffffffffffffffffffffffffffffffffff160217905550612f75806100746000396000f3fe6080604052600436106102515760003560e01c80637bf744f511610139578063a8746e3f116100b6578063cf4248d41161007a578063cf4248d414610963578063d4084b2114610993578063d47c3c31146109c3578063dcb202a6146109ee578063e497db2514610a19578063ff206cf814610a4957610251565b8063a8746e3f1461085e578063b9df28801461088e578063ba12b458146108be578063c30a7741146108fb578063c3f3d3061461092657610251565b80638b060a42116100fd5780638b060a421461076b57806392a24c4c146107a8578063950cc382146107d857806399b84aa714610808578063a6636dbc1461083357610251565b80637bf744f51461068a5780637ffdb270146106ba57806380620983146106ea57806384acd1bb1461071557806385e1f4d01461074057610251565b806339954935116101d25780635447c1d3116101965780635447c1d3146105425780635e2d15ed1461057f5780635f327e1c146105aa578063601ac0cd146105d35780636b9e55be146106105780636cd56d661461064d57610251565b806339954935146104685780633ed3a05414610498578063496d76ff146104c35780634d131474146104ec5780634fd686c81461051757610251565b80631cb33b7f116102195780631cb33b7f146103495780632378f6df14610386578063245d94e8146103c3578063295fc00f14610400578063393bb9431461043d57610251565b806302015480146102565780630fa0b85014610286578063116bd746146102b157806313f66587146102e157806314f8a0ff1461030c575b600080fd5b610270600480360381019061026b9190612693565b610a74565b60405161027d9190612ade565b60405180910390f35b34801561029257600080fd5b5061029b610b72565b6040516102a89190612af9565b60405180910390f35b6102cb60048036038101906102c691906126e2565b610b77565b6040516102d89190612ade565b60405180910390f35b3480156102ed57600080fd5b506102f6610ca3565b6040516103039190612af9565b60405180910390f35b34801561031857600080fd5b50610333600480360381019061032e9190612480565b610ca8565b60405161034091906129e6565b60405180910390f35b34801561035557600080fd5b50610370600480360381019061036b9190612457565b610cf6565b60405161037d91906129e6565b60405180910390f35b34801561039257600080fd5b506103ad60048036038101906103a891906124d2565b610d38565b6040516103ba91906129e6565b60405180910390f35b3480156103cf57600080fd5b506103ea60048036038101906103e591906124a9565b610d74565b6040516103f791906129e6565b60405180910390f35b34801561040c57600080fd5b5061042760048036038101906104229190612480565b610db0565b60405161043491906129e6565b60405180910390f35b34801561044957600080fd5b50610452610dfe565b60405161045f9190612af9565b60405180910390f35b610482600480360381019061047d9190612657565b610e03565b60405161048f9190612ade565b60405180910390f35b3480156104a457600080fd5b506104ad610ef0565b6040516104ba9190612af9565b60405180910390f35b3480156104cf57600080fd5b506104ea60048036038101906104e591906123ed565b610ef5565b005b3480156104f857600080fd5b506105016110f5565b60405161050e9190612af9565b60405180910390f35b34801561052357600080fd5b5061052c6110fa565b6040516105399190612af9565b60405180910390f35b34801561054e57600080fd5b506105696004803603810190610564919061242e565b6110ff565b60405161057691906129e6565b60405180910390f35b34801561058b57600080fd5b5061059461113b565b6040516105a19190612af9565b60405180910390f35b3480156105b657600080fd5b506105d160048036038101906105cc91906125a3565b611140565b005b3480156105df57600080fd5b506105fa60048036038101906105f591906124a9565b611164565b60405161060791906129e6565b60405180910390f35b34801561061c57600080fd5b5061063760048036038101906106329190612457565b6111a0565b60405161064491906129e6565b60405180910390f35b34801561065957600080fd5b50610674600480360381019061066f91906124d2565b6111e2565b60405161068191906129e6565b60405180910390f35b6106a4600480360381019061069f9190612608565b61121e565b6040516106b19190612ade565b60405180910390f35b6106d460048036038101906106cf9190612608565b61130c565b6040516106e19190612ade565b60405180910390f35b3480156106f657600080fd5b506106ff6113fa565b60405161070c9190612af9565b60405180910390f35b34801561072157600080fd5b5061072a6113ff565b6040516107379190612a08565b60405180910390f35b34801561074c57600080fd5b50610755611428565b6040516107629190612a85565b60405180910390f35b34801561077757600080fd5b50610792600480360381019061078d919061242e565b61142d565b60405161079f91906129e6565b60405180910390f35b6107c260048036038101906107bd9190612657565b611469565b6040516107cf9190612ade565b60405180910390f35b6107f260048036038101906107ed9190612657565b611556565b6040516107ff9190612ade565b60405180910390f35b34801561081457600080fd5b5061081d611643565b60405161082a9190612af9565b60405180910390f35b34801561083f57600080fd5b50610848611648565b6040516108559190612af9565b60405180910390f35b61087860048036038101906108739190612693565b61164d565b6040516108859190612ade565b60405180910390f35b6108a860048036038101906108a391906126e2565b61174b565b6040516108b59190612ade565b60405180910390f35b3480156108ca57600080fd5b506108e560048036038101906108e091906124fb565b611877565b6040516108f291906129e6565b60405180910390f35b34801561090757600080fd5b506109106118b3565b60405161091d9190612af9565b60405180910390f35b34801561093257600080fd5b5061094d600480360381019061094891906124fb565b6118b8565b60405161095a91906129e6565b60405180910390f35b61097d60048036038101906109789190612608565b6118f4565b60405161098a9190612ade565b60405180910390f35b6109ad60048036038101906109a89190612608565b6119e2565b6040516109ba9190612ade565b60405180910390f35b3480156109cf57600080fd5b506109d8611ad0565b6040516109e59190612af9565b60405180910390f35b3480156109fa57600080fd5b50610a03611ad5565b604051610a109190612af9565b60405180910390f35b610a336004803603810190610a2e9190612657565b611ada565b604051610a409190612ade565b60405180910390f35b348015610a5557600080fd5b50610a5e611bc7565b604051610a6b91906129e6565b60405180910390f35b600080610acf60405180608001604052808767ffffffffffffffff1681526020018667ffffffffffffffff168152602001600461ffff1681526020013373ffffffffffffffffffffffffffffffffffffffff168152506111a0565b9050610ad96113ff565b73ffffffffffffffffffffffffffffffffffffffff1663b19a437e848360016040518463ffffffff1660e01b8152600401610b1693929190612aa0565b602060405180830381600087803b158015610b3057600080fd5b505af1158015610b44573d6000803e3d6000fd5b505050506040513d601f19601f82011682018060405250810190610b6891906125df565b9150509392505050565b600381565b600080610bfe6040518060c001604052808967ffffffffffffffff1681526020018867ffffffffffffffff1681526020018767ffffffffffffffff168152602001600461ffff1681526020013373ffffffffffffffffffffffffffffffffffffffff1681526020018673ffffffffffffffffffffffffffffffffffffffff16815250610db0565b9050610c086113ff565b73ffffffffffffffffffffffffffffffffffffffff1663b19a437e848360016040518463ffffffff1660e01b8152600401610c4593929190612aa0565b602060405180830381600087803b158015610c5f57600080fd5b505af1158015610c73573d6000803e3d6000fd5b505050506040513d601f19601f82011682018060405250810190610c9791906125df565b91505095945050505050565b600681565b60606001826000015183602001518460400151856060015186608001518760a00151604051602001610ce09796959493929190612965565b6040516020818303038152906040529050919050565b606060088260000151836020015184604001518560600151604051602001610d22959493929190612906565b6040516020818303038152906040529050919050565b60606003826000015183602001518460400151604051602001610d5e94939291906128b8565b6040516020818303038152906040529050919050565b6060600c826000015183602001518460400151604051602001610d9a94939291906128b8565b6040516020818303038152906040529050919050565b60606002826000015183602001518460400151856060015186608001518760a00151604051602001610de89796959493929190612965565b6040516020818303038152906040529050919050565b600c81565b600080610e4e60405180606001604052808667ffffffffffffffff168152602001600461ffff1681526020013373ffffffffffffffffffffffffffffffffffffffff16815250610d74565b9050610e586113ff565b73ffffffffffffffffffffffffffffffffffffffff1663b19a437e848360016040518463ffffffff1660e01b8152600401610e9593929190612aa0565b602060405180830381600087803b158015610eaf57600080fd5b505af1158015610ec3573d6000803e3d6000fd5b505050506040513d601f19601f82011682018060405250810190610ee791906125df565b91505092915050565b600a81565b6000806000610f026113ff565b73ffffffffffffffffffffffffffffffffffffffff1663c0fd8bde856040518263ffffffff1660e01b8152600401610f3a91906129e6565b60006040518083038186803b158015610f5257600080fd5b505afa158015610f66573d6000803e3d6000fd5b505050506040513d6000823e3d601f19601f82011682018060405250810190610f8f9190612524565b925092509250818190610fd8576040517f08c379a0000000000000000000000000000000000000000000000000000000008152600401610fcf9190612a23565b60405180910390fd5b50826080015160036000856060015161ffff1661ffff168152602001908152602001600020541461103e576040517f08c379a000000000000000000000000000000000000000000000000000000000815260040161103590612a65565b60405180910390fd5b60016000846101400151815260200190815260200160002060009054906101000a900460ff16156110a4576040517f08c379a000000000000000000000000000000000000000000000000000000000815260040161109b90612a45565b60405180910390fd5b6001806000856101400151815260200190815260200160002060006101000a81548160ff0219169083151502179055508260e00151600290805190602001906110ee929190611c59565b5050505050565b600b81565b600181565b6060600682600001518360200151846040015160405160200161112594939291906128b8565b6040516020818303038152906040529050919050565b600481565b80600360008461ffff1661ffff168152602001908152602001600020819055505050565b6060600b82600001518360200151846040015160405160200161118a94939291906128b8565b6040516020818303038152906040529050919050565b6060600782600001518360200151846040015185606001516040516020016111cc959493929190612906565b6040516020818303038152906040529050919050565b6060600482600001518360200151846040015160405160200161120894939291906128b8565b6040516020818303038152906040529050919050565b60008061126960405180606001604052808767ffffffffffffffff168152602001600461ffff1681526020018673ffffffffffffffffffffffffffffffffffffffff168152506110ff565b90506112736113ff565b73ffffffffffffffffffffffffffffffffffffffff1663b19a437e848360016040518463ffffffff1660e01b81526004016112b093929190612aa0565b602060405180830381600087803b1580156112ca57600080fd5b505af11580156112de573d6000803e3d6000fd5b505050506040513d601f19601f8201168201806040525081019061130291906125df565b9150509392505050565b60008061135760405180606001604052808767ffffffffffffffff168152602001600461ffff1681526020018673ffffffffffffffffffffffffffffffffffffffff168152506111e2565b90506113616113ff565b73ffffffffffffffffffffffffffffffffffffffff1663b19a437e848360016040518463ffffffff1660e01b815260040161139e93929190612aa0565b602060405180830381600087803b1580156113b857600080fd5b505af11580156113cc573d6000803e3d6000fd5b505050506040513d601f19601f820116820180604052508101906113f091906125df565b9150509392505050565b600881565b60008060009054906101000a900473ffffffffffffffffffffffffffffffffffffffff16905090565b600481565b6060600582600001518360200151846040015160405160200161145394939291906128b8565b6040516020818303038152906040529050919050565b6000806114b460405180606001604052808667ffffffffffffffff168152602001600461ffff1681526020013373ffffffffffffffffffffffffffffffffffffffff16815250611877565b90506114be6113ff565b73ffffffffffffffffffffffffffffffffffffffff1663b19a437e848360016040518463ffffffff1660e01b81526004016114fb93929190612aa0565b602060405180830381600087803b15801561151557600080fd5b505af1158015611529573d6000803e3d6000fd5b505050506040513d601f19601f8201168201806040525081019061154d91906125df565b91505092915050565b6000806115a160405180606001604052808667ffffffffffffffff168152602001600461ffff1681526020013373ffffffffffffffffffffffffffffffffffffffff16815250611164565b90506115ab6113ff565b73ffffffffffffffffffffffffffffffffffffffff1663b19a437e848360016040518463ffffffff1660e01b81526004016115e893929190612aa0565b602060405180830381600087803b15801561160257600080fd5b505af1158015611616573d6000803e3d6000fd5b505050506040513d601f19601f8201168201806040525081019061163a91906125df565b91505092915050565b600181565b600781565b6000806116a860405180608001604052808767ffffffffffffffff1681526020018667ffffffffffffffff168152602001600461ffff1681526020013373ffffffffffffffffffffffffffffffffffffffff16815250610cf6565b90506116b26113ff565b73ffffffffffffffffffffffffffffffffffffffff1663b19a437e848360016040518463ffffffff1660e01b81526004016116ef93929190612aa0565b602060405180830381600087803b15801561170957600080fd5b505af115801561171d573d6000803e3d6000fd5b505050506040513d601f19601f8201168201806040525081019061174191906125df565b9150509392505050565b6000806117d26040518060c001604052808967ffffffffffffffff1681526020018867ffffffffffffffff1681526020018767ffffffffffffffff168152602001600461ffff1681526020013373ffffffffffffffffffffffffffffffffffffffff1681526020018673ffffffffffffffffffffffffffffffffffffffff16815250610ca8565b90506117dc6113ff565b73ffffffffffffffffffffffffffffffffffffffff1663b19a437e848360016040518463ffffffff1660e01b815260040161181993929190612aa0565b602060405180830381600087803b15801561183357600080fd5b505af1158015611847573d6000803e3d6000fd5b505050506040513d601f19601f8201168201806040525081019061186b91906125df565b91505095945050505050565b6060600a82600001518360200151846040015160405160200161189d94939291906128b8565b6040516020818303038152906040529050919050565b600281565b606060098260000151836020015184604001516040516020016118de94939291906128b8565b6040516020818303038152906040529050919050565b60008061193f60405180606001604052808767ffffffffffffffff168152602001600461ffff1681526020018673ffffffffffffffffffffffffffffffffffffffff16815250610d38565b90506119496113ff565b73ffffffffffffffffffffffffffffffffffffffff1663b19a437e848360016040518463ffffffff1660e01b815260040161198693929190612aa0565b602060405180830381600087803b1580156119a057600080fd5b505af11580156119b4573d6000803e3d6000fd5b505050506040513d601f19601f820116820180604052508101906119d891906125df565b9150509392505050565b600080611a2d60405180606001604052808767ffffffffffffffff168152602001600461ffff1681526020018673ffffffffffffffffffffffffffffffffffffffff1681525061142d565b9050611a376113ff565b73ffffffffffffffffffffffffffffffffffffffff1663b19a437e848360016040518463ffffffff1660e01b8152600401611a7493929190612aa0565b602060405180830381600087803b158015611a8e57600080fd5b505af1158015611aa2573d6000803e3d6000fd5b505050506040513d601f19601f82011682018060405250810190611ac691906125df565b9150509392505050565b600981565b600581565b600080611b2560405180606001604052808667ffffffffffffffff168152602001600461ffff1681526020013373ffffffffffffffffffffffffffffffffffffffff168152506118b8565b9050611b2f6113ff565b73ffffffffffffffffffffffffffffffffffffffff1663b19a437e848360016040518463ffffffff1660e01b8152600401611b6c93929190612aa0565b602060405180830381600087803b158015611b8657600080fd5b505af1158015611b9a573d6000803e3d6000fd5b505050506040513d601f19601f82011682018060405250810190611bbe91906125df565b91505092915050565b606060028054611bd690612cec565b80601f0160208091040260200160405190810160405280929190818152602001828054611c0290612cec565b8015611c4f5780601f10611c2457610100808354040283529160200191611c4f565b820191906000526020600020905b815481529060010190602001808311611c3257829003601f168201915b5050505050905090565b828054611c6590612cec565b90600052602060002090601f016020900481019282611c875760008555611cce565b82601f10611ca057805160ff1916838001178555611cce565b82800160010185558215611cce579182015b82811115611ccd578251825591602001919060010190611cb2565b5b509050611cdb9190611cdf565b5090565b5b80821115611cf8576000816000905550600101611ce0565b5090565b6000611d0f611d0a84612b39565b612b14565b90508083825260208201905082856080860282011115611d2e57600080fd5b60005b85811015611d5e5781611d4488826121ae565b845260208401935060808301925050600181019050611d31565b5050509392505050565b6000611d7b611d7684612b65565b612b14565b905082815260208101848484011115611d9357600080fd5b611d9e848285612caa565b509392505050565b6000611db9611db484612b65565b612b14565b905082815260208101848484011115611dd157600080fd5b611ddc848285612cb9565b509392505050565b6000611df7611df284612b96565b612b14565b905082815260208101848484011115611e0f57600080fd5b611e1a848285612cb9565b509392505050565b600081359050611e3181612e9e565b92915050565b600082601f830112611e4857600080fd5b8151611e58848260208601611cfc565b91505092915050565b600081519050611e7081612eb5565b92915050565b600081359050611e8581612ecc565b92915050565b600081519050611e9a81612ecc565b92915050565b600082601f830112611eb157600080fd5b8135611ec1848260208601611d68565b91505092915050565b600082601f830112611edb57600080fd5b8151611eeb848260208601611da6565b91505092915050565b600082601f830112611f0557600080fd5b8151611f15848260208601611de4565b91505092915050565b600060608284031215611f3057600080fd5b611f3a6060612b14565b90506000611f4a848285016123ae565b6000830152506020611f5e8482850161235a565b6020830152506040611f7284828501611e22565b60408301525092915050565b600060808284031215611f9057600080fd5b611f9a6080612b14565b90506000611faa848285016123ae565b6000830152506020611fbe848285016123ae565b6020830152506040611fd28482850161235a565b6040830152506060611fe684828501611e22565b60608301525092915050565b600060c0828403121561200457600080fd5b61200e60c0612b14565b9050600061201e848285016123ae565b6000830152506020612032848285016123ae565b6020830152506040612046848285016123ae565b604083015250606061205a8482850161235a565b606083015250608061206e84828501611e22565b60808301525060a061208284828501611e22565b60a08301525092915050565b6000606082840312156120a057600080fd5b6120aa6060612b14565b905060006120ba848285016123ae565b60008301525060206120ce8482850161235a565b60208301525060406120e284828501611e22565b60408301525092915050565b60006060828403121561210057600080fd5b61210a6060612b14565b9050600061211a848285016123ae565b600083015250602061212e8482850161235a565b602083015250604061214284828501611e22565b60408301525092915050565b60006060828403121561216057600080fd5b61216a6060612b14565b9050600061217a848285016123ae565b600083015250602061218e8482850161235a565b60208301525060406121a284828501611e22565b60408301525092915050565b6000608082840312156121c057600080fd5b6121ca6080612b14565b905060006121da84828501611e8b565b60008301525060206121ee84828501611e8b565b6020830152506040612202848285016123d8565b6040830152506060612216848285016123d8565b60608301525092915050565b6000610160828403121561223557600080fd5b612240610160612b14565b90506000612250848285016123d8565b600083015250602061226484828501612399565b602083015250604061227884828501612399565b604083015250606061228c8482850161236f565b60608301525060806122a084828501611e8b565b60808301525060a06122b4848285016123c3565b60a08301525060c06122c8848285016123d8565b60c08301525060e082015167ffffffffffffffff8111156122e857600080fd5b6122f484828501611eca565b60e08301525061010061230984828501612399565b6101008301525061012082015167ffffffffffffffff81111561232b57600080fd5b61233784828501611e37565b6101208301525061014061234d84828501611e8b565b6101408301525092915050565b60008135905061236981612ee3565b92915050565b60008151905061237e81612ee3565b92915050565b60008135905061239381612efa565b92915050565b6000815190506123a881612efa565b92915050565b6000813590506123bd81612f11565b92915050565b6000815190506123d281612f11565b92915050565b6000815190506123e781612f28565b92915050565b6000602082840312156123ff57600080fd5b600082013567ffffffffffffffff81111561241957600080fd5b61242584828501611ea0565b91505092915050565b60006060828403121561244057600080fd5b600061244e84828501611f1e565b91505092915050565b60006080828403121561246957600080fd5b600061247784828501611f7e565b91505092915050565b600060c0828403121561249257600080fd5b60006124a084828501611ff2565b91505092915050565b6000606082840312156124bb57600080fd5b60006124c98482850161208e565b91505092915050565b6000606082840312156124e457600080fd5b60006124f2848285016120ee565b91505092915050565b60006060828403121561250d57600080fd5b600061251b8482850161214e565b91505092915050565b60008060006060848603121561253957600080fd5b600084015167ffffffffffffffff81111561255357600080fd5b61255f86828701612222565b935050602061257086828701611e61565b925050604084015167ffffffffffffffff81111561258d57600080fd5b61259986828701611ef4565b9150509250925092565b600080604083850312156125b657600080fd5b60006125c48582860161235a565b92505060206125d585828601611e76565b9150509250929050565b6000602082840312156125f157600080fd5b60006125ff848285016123c3565b91505092915050565b60008060006060848603121561261d57600080fd5b600061262b868287016123ae565b935050602061263c86828701611e22565b925050604061264d86828701612384565b9150509250925092565b6000806040838503121561266a57600080fd5b6000612678858286016123ae565b925050602061268985828601612384565b9150509250929050565b6000806000606084860312156126a857600080fd5b60006126b6868287016123ae565b93505060206126c7868287016123ae565b92505060406126d886828701612384565b9150509250925092565b600080600080600060a086880312156126fa57600080fd5b6000612708888289016123ae565b9550506020612719888289016123ae565b945050604061272a888289016123ae565b935050606061273b88828901611e22565b925050608061274c88828901612384565b9150509295509295909350565b61276a61276582612bff565b612d4f565b82525050565b600061277b82612bc7565b6127858185612bdd565b9350612795818560208601612cb9565b61279e81612e07565b840191505092915050565b6127b281612c86565b82525050565b60006127c382612bd2565b6127cd8185612bee565b93506127dd818560208601612cb9565b6127e681612e07565b840191505092915050565b60006127fe601983612bee565b915061280982612e4c565b602082019050919050565b6000612821601883612bee565b915061282c82612e75565b602082019050919050565b61284081612c27565b82525050565b61285761285282612c27565b612d61565b82525050565b61286681612c55565b82525050565b61287581612c65565b82525050565b61288c61288782612c65565b612d85565b82525050565b61289b81612c79565b82525050565b6128b26128ad82612c79565b612d97565b82525050565b60006128c482876128a1565b6001820191506128d4828661287b565b6008820191506128e48285612846565b6002820191506128f48284612759565b60148201915081905095945050505050565b600061291282886128a1565b600182019150612922828761287b565b600882019150612932828661287b565b6008820191506129428285612846565b6002820191506129528284612759565b6014820191508190509695505050505050565b6000612971828a6128a1565b600182019150612981828961287b565b600882019150612991828861287b565b6008820191506129a1828761287b565b6008820191506129b18286612846565b6002820191506129c18285612759565b6014820191506129d18284612759565b60148201915081905098975050505050505050565b60006020820190508181036000830152612a008184612770565b905092915050565b6000602082019050612a1d60008301846127a9565b92915050565b60006020820190508181036000830152612a3d81846127b8565b905092915050565b60006020820190508181036000830152612a5e816127f1565b9050919050565b60006020820190508181036000830152612a7e81612814565b9050919050565b6000602082019050612a9a6000830184612837565b92915050565b6000606082019050612ab5600083018661285d565b8181036020830152612ac78185612770565b9050612ad66040830184612892565b949350505050565b6000602082019050612af3600083018461286c565b92915050565b6000602082019050612b0e6000830184612892565b92915050565b6000612b1e612b2f565b9050612b2a8282612d1e565b919050565b6000604051905090565b600067ffffffffffffffff821115612b5457612b53612dd8565b5b602082029050602081019050919050565b600067ffffffffffffffff821115612b8057612b7f612dd8565b5b612b8982612e07565b9050602081019050919050565b600067ffffffffffffffff821115612bb157612bb0612dd8565b5b612bba82612e07565b9050602081019050919050565b600081519050919050565b600081519050919050565b600082825260208201905092915050565b600082825260208201905092915050565b6000612c0a82612c35565b9050919050565b60008115159050919050565b6000819050919050565b600061ffff82169050919050565b600073ffffffffffffffffffffffffffffffffffffffff82169050919050565b600063ffffffff82169050919050565b600067ffffffffffffffff82169050919050565b600060ff82169050919050565b6000612c9182612c98565b9050919050565b6000612ca382612c35565b9050919050565b82818337600083830152505050565b60005b83811015612cd7578082015181840152602081019050612cbc565b83811115612ce6576000848401525b50505050565b60006002820490506001821680612d0457607f821691505b60208210811415612d1857612d17612da9565b5b50919050565b612d2782612e07565b810181811067ffffffffffffffff82111715612d4657612d45612dd8565b5b80604052505050565b6000612d5a82612d73565b9050919050565b6000612d6c82612e25565b9050919050565b6000612d7e82612e3f565b9050919050565b6000612d9082612e18565b9050919050565b6000612da282612e32565b9050919050565b7f4e487b7100000000000000000000000000000000000000000000000000000000600052602260045260246000fd5b7f4e487b7100000000000000000000000000000000000000000000000000000000600052604160045260246000fd5b6000601f19601f8301169050919050565b60008160c01b9050919050565b60008160f01b9050919050565b60008160f81b9050919050565b60008160601b9050919050565b7f4d65737361676520616c72656164792070726f63657373656400000000000000600082015250565b7f496e76616c696420456d69747465722041646472657373210000000000000000600082015250565b612ea781612bff565b8114612eb257600080fd5b50565b612ebe81612c11565b8114612ec957600080fd5b50565b612ed581612c1d565b8114612ee057600080fd5b50565b612eec81612c27565b8114612ef757600080fd5b50565b612f0381612c55565b8114612f0e57600080fd5b50565b612f1a81612c65565b8114612f2557600080fd5b50565b612f3181612c79565b8114612f3c57600080fd5b5056fea2646970667358221220eada970533fb36d9d7163e49bb95c6437acf0c74bedd736040da03d510a6c38f64736f6c63430008040033",
    "linkReferences": {},
    "deployedLinkReferences": {}
}